:020000040800F2
:1000000050EA012099530008392600083B260008D1
:100010005526000857260008592600080000000051
:100020000000000000000000000000005B26000847
:100030005D26000800000000DBAA00089D560008AD
:10004000B3530008B3530008B3530008B353000878
:10005000B3530008B3530008AB0C0008B3530008B7
:10006000B3530008B3530008B3530008B353000858
:10007000B3530008B3530008B3530008B353000848
:10008000B3530008B3530008B3530008B353000838
:10009000B3530008B3530008B35300081D270008EA
:1000A000B3530008B3530008B3530008B353000818
:1000B000B3530008DD26000861260008B35300088A
:1000C000B3530008B3530008B3530008B3530008F8
:1000D000B3530008A5110008B3530008B353000838
:1000E000B35300081B230008B3530008B3530008A0
:1000F000B3530008B3530008B3530008B3530008C8
:10010000B3530008B3530008B3530008B3530008B7
:10011000B3530008B3530008B3530008B3530008A7
:10012000B3530008B3530008B3530008B353000897
:10013000B3530008B3530008B3530008B353000887
:10014000B3530008B3530008B3530008B353000877
:10015000B3530008B3530008B3530008B353000867
:10016000B3530008B3530008B3530008B353000857
:10017000B3530008B3530008B3530008B353000847
:10018000B3530008B3530008DFF80CD00AF0E8FBC3
:10019000004800473D02000850EA012010B501F078
:1001A00033FD02F0E7F801F0B1FD012002F026F97D
:1001B000BDE81040012002F02BB91FB5684602F0DF
:1001C0007FFD019804B010BD10B5FFF7F6FF174989
:1001D0000968BDE81040B0FBF1F005F06EBA10B54B
:1001E000FFF7EBFF12490A6842F080720A6011497A
:1001F00000224A600A6842F001020A60BDE810402D
:1002000005F052B90B484068704710B50446FFF737
:10021000D4FF0021084A0B4609F0F4FF02460B46C2
:100220002046002109F0EEFF10BD000018BC0008B8
:10023000FCED00E0001000E040420F0000B58BB084
:10024000FFF7ACFF09A805F0A8FA09A90322CDE938
:10025000072104230020CDE905306622190202920D
:10026000CDE90310084B0220CDE900030648002326
:10027000064A07A1C03807F03EFE09A805F02EFC8B
:100280000BB0002000BD00006C02002097030008A6
:100290004170705461736B5374617274000000009C
:1002A00090B0CC200BF012FB61490860CC2109F022
:1002B000F3FF60480AF042FC02F05CF85EA00AF02E
:1002C0003DFC65A00AF03AFC012002F097F80120FD
:1002D00002F09EF868A00AF031FC02A801F0F1FCDF
:1002E00002A96DA00AF02AFC02F0EEF86EA00AF056
:1002F00025FC02F023F902F03CF902460B4672A0FD
:100300000AF01CFC00F09AFC78A00AF017FC00F040
:1003100061FA7EA00AF012FC00F0AAFD83A00AF0A8
:100320000DFC8AA00AF00AFC002001F03BFE8EA022
:100330000AF004FC01F0DDFE014694A00AF0FEFB89
:1003400098A00AF0FBFB012000F033FC00250FAC65
:1003500001F052FB0022CDE900540A231146104659
:1003600008F00EFDF4E70EB5002502AC0023CDE940
:10037000005405221946184608F002FDF6E70EB5AE
:10038000002502AC0023CDE900540122194618468D
:1003900008F0F6FCF6E72DE9F0418AB005F035F8F3
:1003A000FFF712FF002406A809AE0325059470C0CC
:1003B00084494FF480674FF0660805202346AFF26A
:1003C00041028DE80301CDE903747FA1804807F065
:1003D00092FD06A8CDF80880059470C07D490023E1
:1003E000AFF27D02CDE900517948CDE903747AA1DD
:1003F000C03007F080FD06AB059470C34FF47D60FC
:100400004FF4CA71CDE90210754A0620CDE9000209
:1004100004940023AFF277126A4872A1C03807F043
:100420006AFD09A9002007F027FE0AB0BDE8F081A7
:100430000000002084B900085561727420496E697B
:100440007420202020202020202020202020202058
:1004500020204F6B2E0D0A00436F6E74726F6C205C
:10046000494F20496E697420202020202020202020
:1004700020204F6B2E0D0A00506F77657220436F5E
:100480006E74726F6C20494F20496E697420202071
:1004900020204F6B2E0D0A00434849502049443A12
:1004A0002025730D0A000000496E6E6572204144DC
:1004B0004320496E69742020202020202020202005
:1004C00020204F6B2E0D0A00496E6E65722041444C
:1004D000432056616C75653A202020202020202082
:1004E0002020256620760D0A000000005261696E0A
:1004F000436F756E74657220496E697420202020E8
:100500002020202020204F6B2E0D0A00467265719E
:100510004D6F64756C6520496E6974202020202021
:100520002020202020204F6B2E0D0A004C544332F7
:1005300034303220496E6974202020202020202071
:100540002020202020204F6B2E0D0A0052544320E3
:10055000436F6E666967726174696F6E2E2E2E2E00
:100560002E2E0D0A0000000052544320436F6E6689
:100570006967656420496E20496E6E657220436C20
:100580006F636B204D6F64652E0D0A0043757272A8
:10059000656E742054696D653A3C2D25732D3E0DB2
:1005A0000A000000426F61726420416C6C204D6F44
:1005B00075646C657320496E697420446F6E652E96
:1005C0000D0A0000AC1400207461736B3100000050
:1005D0006C120020AC2400207461736B32000000A8
:1005E000AC3400207461736B3300000070B58AB0C6
:1005F0004FF4A06002F0C4F80121022002F0E1FBF8
:1006000042F2CF000025ADF81400FC4E0124ADF8F5
:100610001C50ADF8165006948DF81E5005A93046B2
:1006200002F0E0FE6020ADF800000220ADF80C0002
:10063000C001ADF81000ADF80240694630460294A2
:1006400002F0BAFF0121304603F036FA01221146CA
:10065000304603F050FA0021304602F03BFF1D20E7
:100660008DF820008DF821408DF822508DF8234020
:1006700008A802F08AF80AB070BD3EB5012108460C
:1006800002F09FFB40F21710ADF8000000204FF67B
:10069000FF71ADF80800ADF8020001918DF80A0075
:1006A0004FF080446946204602F09CFE012120461E
:1006B00002F0F6FE0021204602F00CFF3EBD30B5F0
:1006C00089B04FF4A06002F05BF80121042002F031
:1006D00078FB0024D620CA4DADF800400190ADF85B
:1006E0000840ADF802408DF80A406946284602F0FD
:1006F00079FE7021284603F03CFA002202231146BD
:10070000284603F071FA0F200590ADF80C4003A9BC
:10071000284602F0E9FE01220321284603F0EBF906
:100720000121284603F0F8F90121284602F0B8FE1D
:10073000B348243004600021284602F0CBFE1E207E
:100740008DF820008DF821408DF8224001208DF891
:10075000230008A802F019F809B030BD2DE9F047D0
:100760009046994602460B4609F075FE0022A54BBD
:1007700009F0E3FE04460D46A34AA44B09F06BFEC4
:10078000A34AA44B09F0C0FD06460F46A24AA34B5C
:100790004046494609F059FE32463B4609F05BFEA9
:1007A000DFF87C82DFF87C9242464B4609F053FE2C
:1007B00006460F469C4A9D4B2046294609F045FEB9
:1007C00042464B4609F047FE32463B46BDE8F047FD
:1007D00009F09ABD2DE9F0438BB001211F2002F0F2
:1007E000D2FA02278DF80470002401258DF8064006
:1007F000DFF83C828DF8075003268DF805606946C6
:100800004046009502F008F902220021404602F01D
:1008100077F98DF804508DF80640A8028DF807503E
:1008200000908DF805606946404602F0F5F88DF8B5
:1008300004508DF806400620DFF8F8818DF8075047
:1008400000908DF805606946404602F0E5F88DF8A5
:1008500004508DF8064030208DF8075000908DF838
:1008600005606946404602F0D7F88DF804508DF8CF
:100870000640DFF8C4918DF807504FF480788DF86A
:10088000056069464846CDF8008002F0C5F88DF84D
:1008900004708DF806408DF807508DF805606946A4
:1008A0004846009502F0B8F802220021484602F0BE
:1008B00027F90121022002F084FA42F2CF00ADF8BC
:1008C00008004E4EADF81040ADF80A4003958DF883
:1008D000124002A9304602F085FD6020ADF81400F8
:1008E000ADF81650ADF82070ADF8248005A930465B
:1008F000079502F061FE0121304603F0DDF8012288
:100900001146304603F0F7F80021304602F0E2FDD0
:100910000121084602F055FA40F21710ADF8080020
:100920004FF6FF700390ADF81040AE07ADF80A40E7
:100930008DF8124002A9304602F054FD01213046E4
:1009400002F0AEFD0121304602F0C4FD0121042079
:1009500002F037FA6D202A4EADF808400390ADF84A
:100960001040ADF80A408DF8124002A9304602F05E
:1009700039FD7021304603F0FCF8002202231146B5
:10098000304603F031F90A200790ADF8144005A96C
:10099000304602F0A9FD01220321304603F0ABF8F6
:1009A0000121304603F0B8F80121304602F078FD0D
:1009B0001348243004600021304602F08BFD4FF4D0
:1009C000A06001F0DDFE1E208DF828008DF8294082
:1009D0008DF82A408DF82B500AA801F0D6FE1D2074
:1009E0008DF828008DF829508DF82A408DF82B506D
:1009F0000AA801F0CAFE0BB0BDE8F0830004004075
:100A00000008004000408F4038842A357BA0353FE5
:100A10008FC2F5285C8FDA3FCDCCCCCCCC4C3A40A1
:100A2000103D29931ADA903F32FE7DC6059A954013
:100A30000004024000080240001002402DE9F0418D
:100A4000754AA0F203510024012560260227DFF831
:100A5000CC8188B0914206D27149B1FBF0F0401EC2
:100A6000ADF8000048E0A0F1810140F281429142DE
:100A70001BD86C49ADF80840B1FBF0F0401EADF852
:100A8000000013200190ADF802408DF80A4069463D
:100A9000404602F0A7FCADF80C60ADF80E50ADF882
:100AA0001870ADF81C400A201FE080281FD84AF2B9
:100AB0001041B1FBF0F0401EADF8000040F2CF70E5
:100AC0000190ADF80840ADF802408DF80A40694643
:100AD000404602F087FCADF80C60ADF80E50ADF862
:100AE0001870ADF81C404FF47A70059018E04E492C
:100AF000884215D9ADF80040ADF80840ADF8024085
:100B000001958DF80A406946404602F06BFCADF84D
:100B10000C60ADF80E50ADF81870ADF81C4005959E
:100B200003A9404602F048FD08B0BDE8F08110B5C9
:100B30000C46FFF783FF3D483849047000202431FC
:100B40000860364824B10121BDE8104002F0C2BC63
:100B50000021F9E72DE9FE43354E0024DFF8D4905B
:100B6000C6E900440121484602F0B4FC00250DF11D
:100B70000808314F0EE00022CDE90058012311464C
:100B8000104608F0FDF8641CFA2C03D90020C6E9D1
:100B9000000002E038780028EDD03D700021484682
:100BA00002F098FC234824300560D6E9000103B028
:100BB00022E72DE9FE4301F03FFC002001F032FC6A
:100BC0004FF4C87443F69828002602AF42F2D009C9
:100BD000B8FBF4F0C5B20F212046FFF7A8FFC5B15E
:100BE0002B46002211461046CDE9006708F0C8F8F0
:100BF00064344C45ECD3012001F014FC0022142392
:100C000011461046CDE9006708F0BAF8FFF7A2FFD9
:100C1000CDE70123E5E70000FDB701050004004032
:100C200080DE80024016400000BD01050400002067
:100C3000D000002000080040C800002070B501214D
:100C400086B0880302F0C7F80121082002F09BF863
:100C5000002501248DF804508DF806408DF80740DA
:100C6000022600948DF8056069462E4801F0D4FEF6
:100C70000021032002F05FF98DF80E408DF80C5032
:100C800008208DF80D0002A8029401F0FFFD062057
:100C90008DF810008DF813408DF811608DF812500A
:100CA00004A801F072FD06B070BD70B504F0F4FD4B
:100CB000012001F03BFE80B31B4D2868401C2860DA
:100CC0000A2821DD194E346801F072FC184904EB42
:100CD000840001EB8000174901F085FC502001F0F1
:100CE0006FFC0128FAD10A342146304604F0BEF9DF
:100CF0000828F9D104F00CF9002028604FF4806135
:100D00000C4809F0C9FA05E001F099F901460948D3
:100D100009F0CDFA012001F017FEBDE8704004F0A3
:100D2000C6BD0000000C02400800002000000C08B6
:100D300000000E08EC7300202DE9F043012187B07C
:100D4000084602F020F84FF480590121484602F08D
:100D500042F802268DF804600024E0208DF8064059
:100D60000327DFF8E08200908DF8057001258DF8EB
:100D700007506946404601F04FFE8DF804502802A6
:100D80008DF8064000908DF805708DF80750694683
:100D9000404601F041FE05221146404601F0B0FEFA
:100DA00005220621404601F0ABFE05220721404600
:100DB00001F0A6FE0121484602F03FF80021484616
:100DC00002F03BF8ADF808404FF48270ADF80A002D
:100DD000ADF810506802ADF812002020ADF81400F4
:100DE000ADF80C40ADF816400720974CADF8180050
:100DF000ADF80E6002A9204602F078FF01212046DE
:100E000003F003F807B0BDE8F08301468E4802887E
:100E100022F03802028002880A430280012102F097
:100E2000F4BF70B5884C05460221204603F080F8D7
:100E30000028F9D02946204603F04DF8012120462C
:100E400003F076F80028F9D0204603F042F8C0B24B
:100E500070BDFF20E5E70EB5002002A9CDE9000135
:100E600064230246014607F08BFFFFF7F2FF0EBD39
:100E700010B5FFF761FF3020FFF7C7FFBDE8104056
:100E80004FF480716F4801F02EBE2DE9F05F002213
:100E90009046914616461746154601F0CDFAFFF7E3
:100EA000DAFF0446000623D4FFF7D3FF8346FFF79B
:100EB000D0FF8246FFF7CDFF00EB04614FEA0B4203
:100EC00002EB0A20084461490840000909F0BBFB15
:100ED0006FF0170209F0A0FB5D4A5E4B09F0BBFA08
:100EE000620603D500218846894601E006460F4682
:100EF0006D1CEDB2062DD2D342464B4630463946E4
:100F000009F0C2FB04D242464B463046394603E064
:100F100032463B464046494609F097FA04460D469C
:100F200002460B464A484B4909F08FFA00224A4BC9
:100F300009F003FB02460B4620462946BDE8F05F58
:100F400009F0FBBA2DE9F04704460D460022434B59
:100F500009F09AFB29D20022414B2046294609F08C
:100F60007FFB22D23F4E002233462046294609F01D
:100F70006FFA3D4A3D4B09F06EFA3D4A3D4B09F090
:100F800067FA0AF0D9FC3C4A3C4B09F05EFA4FF094
:100F9000FF3209F041FB3A4A3A4B09F0CEFA3346A8
:100FA000BDE8F047002209F0C8BA0022364B2046BF
:100FB000294609F069FB41D20022344B20462946DC
:100FC00009F04EFB3AD2204629460AF0C7FA80467D
:100FD0008946204629460AF0C1FA06460F462046B1
:100FE00029460AF0BBFA2A4A2A4B09F034FA3B4652
:100FF000324609F030FA42464B4609F02CFA0646D2
:101000000F46204629460AF0A9FA234A234B09F045
:1010100022FA234A234B09F077F932463B4609F07E
:1010200073F902460B4600201F4909F086FABDE815
:10103000F0474FF033321D4B09F007BA002001464C
:10104000BDE8F0870000024000300140F0FFFF0FD4
:10105000F6285C8FC2F513400024D34000001440F2
:101060000000694000005940B45208E412472EBF06
:101070005B0E2DD73F8DC33F6CEC12D55B03D93F80
:1010800088CE19EEAF60A3BE00406F40006AF84002
:101090000E7007C2835A7B3E42823D810B0D2F3F6B
:1010A00023090CA36A05573F0000F03F331371403A
:1010B0009F2901D9372200E0302202EB111201F002
:1010C0000F010270092901D9373100E03031417038
:1010D0007047F0B506464FF0FF3000240F4D0EE08C
:1010E00056F82420002390EA020702D585EA400042
:1010F00000E0400052005B1C202BF4D3641C8C42A7
:10110000EED3F0BD70B50C46054601F091FB2146CB
:101110002846BDE8704001F093BB0000B71DC10434
:10112000002120F8C81F41807047C83041880088DE
:10113000081AC830C82190FBF1F201FB120080B2FE
:10114000704730B5B0F8CA30C8221C465B1CB3FBF0
:10115000F2F502FB1533B0F8C850AB4201D10020C4
:1011600030BD015530F8CA1F491CB1FBF2F302FB38
:1011700013110180012030BDB0F8C820B0F8CA308A
:101180009A4201D100207047825C0A7030F8C81F73
:10119000C822491CB1FBF2F302FB131101800120AC
:1011A0007047000070B5002404F076FB504E40F20A
:1011B0002551304602F056F84E4D98B12021304668
:1011C00002F04DF8304601F0B6FFC4B24A4821465D
:1011D0000068FFF7B6FF28780D2803D10A2C01D14B
:1011E000012068702C70BDE8704004F060BB41487D
:1011F000406870472DE9F04115460E460746002429
:101200000BE0315D384601F092FF4021384602F094
:101210001FF80028F9D0641CA4B2AC42F1D3BDE899
:10122000F08110B53449044608680AF06FF90021CE
:10123000204601F056FF002240F22551204601F0E1
:10124000EFFF2046BDE81040002240F2277101F078
:10125000E7BF2DE9F843284890460D4600244FF497
:101260004876076806E09DF800002855641CA4B283
:10127000B44205D869463846FFF77EFF0128F2D010
:10128000A8F80040BDE8F8832DE9F8431A489046D5
:101290000E460024174D07680CE09DF800003055FD
:1012A000641C9DF80000A4B20A2802D1A9780D2977
:1012B00006D0A87069463846FFF75EFF0128ECD0DB
:1012C000A8F80040DEE7F8B50B4816460D460024A6
:1012D00007680AE09DF800002855641CA4B269461E
:1012E0003846FFF749FF0128F4D0A642F7D1F8BDF0
:1012F000001001400C000020000000202DE9F74FF5
:101300004FF00008880093468A46474646464446C2
:1013100001F113054C300AF0D9FA81469BF8000020
:1013200038B1009903B05246BDE8F04FFC4800F0D8
:10133000FABB5FEA090007D110E00098015D49F8A7
:101340002410641C4846A4B2AC42F6D35146FFF7C1
:10135000C0FE064648460AF0D9F802E002208BF8A3
:1013600001000AF119000AF0B1FA0446B9F1000FC0
:1013700002D102208BF80100FE2020700120607055
:10138000290EA170290CE170290A21716571A071E3
:10139000E071002121726072A1724FEA1860E07260
:1013A0004FEA184020734FEA1820607384F80E80CB
:1013B000380EE073380C2074380A6074A7745246F3
:1013C00004F11300009908F04EFF04EB0A00310EFF
:1013D000C174310C0175310A417586750D21C175D5
:1013E0000A210176AD1DAAB22146CD4800F09BFB33
:1013F0002046BDE8FE4F0AF089B810B5A8B00446F3
:10140000642101A808F048FF1AA800F05AFC1AA8A5
:10141000C44B00901A1FC4A101A809F09FFB01A8AA
:1014200008F051FF81B2207801AC002804EB0100E4
:1014300016D0BC49263109F091FB01A808F043FF02
:10144000B84980B22044C91F09F088FB01A808F000
:101450003AFF82B201A9B24800F065FB28B010BD86
:10146000B049891DE7E72DE9F14FADF6F80D0024ED
:101470004FF4006123A808F00FFF20210DF50C6048
:1014800008F00AFF0DF68C0000F01BFC00F031FEA6
:1014900001460DF50C6008F00AFF01F04FF801F06D
:1014A00068F881468B460120FFF783FB0220FFF797
:1014B00080FB0DF50E6203C20320FFF77AFB824624
:1014C0000420CDF8F018FFF774FB07468846052086
:1014D000FFF76FFBCDE906010620FFF76AFBCDE9B8
:1014E0000A010720FFF765FBCDE90E010820FFF791
:1014F00060FBCDE912010120FFF7C7FCFFF722FDD9
:101500000220FFF7C2FCFFF71DFD0DF6E80203C243
:101510000320FFF7BAFCFFF715FDCDE90201042017
:10152000FFF7B3FCFFF70EFDCDE904010520FFF73F
:10153000ACFCFFF707FDCDE908010620FFF7A5FC8D
:10154000FFF700FDCDE90C010720FFF79EFCFFF738
:10155000F9FCCDE910010820FFF797FCFFF7F2FC3A
:10156000054674480E460068149080B1CDE9009B92
:101570000DF50C630DF68C026A496FA009F0DEFAD6
:1015800014980A2190FBF1F9DFF8C4B179E06548BD
:101590002095C01FCDE92110DDE91201CDE91E0122
:1015A000DDE91001CDE91C01DDE90E01CDE91A01EB
:1015B000DDE90C01CDE91801DDE90A01CDE91601EB
:1015C000DDE90801CDE91401DDE90601CDE91201EB
:1015D000DDE90401CDE91001DDE90201CDE90E7874
:1015E000CDE90C01DDF8F0080DF6E802CDE90AA01E
:1015F00003CA103ACDE9080103CA4A4ACDE90601F7
:101600005448CDF80890CDE903B00DF50C6000907A
:101610000DF68C0302F1390123A809F09FFA4E4917
:10162000002008604FF480614A4808F035FE23A886
:1016300008F049FE81B223A8DDF8F828FFF75EFE26
:101640004FF4006123A808F027FE0DF6FC0DBDE85D
:10165000F08F4FF4006123A808F01EFE04EBC400D5
:1016600000EB04110BEBC100C82100F0CCFF0246D7
:101670003AA123A809F072FA23A938A009F05EFA6A
:10168000641CA145E5DC334934A009F057FA4FF456
:101690000064214623A808F0FFFD22481895C01FCA
:1016A000CDE91960DDE91201CDE91601DDE910018E
:1016B000CDE91401DDE90E01CDE91201DDE90C01EE
:1016C000CDE91001DDE90A01CDE90E01DDE90801EE
:1016D000CDE90C01DDE90601CDE90A01DDE90401EE
:1016E000CDE90678CDE90801DDE90201CDE9040183
:1016F000DDF8F0080DF6E802CDE902A003CACDE955
:1017000000010DF50E6107480CC9B13009F016FA59
:1017100011490020086061100E4808F0BDFD1FE06F
:1017200000100140D7B9000823257325733D307898
:101730002573200000000C082353435425733D30CB
:1017400078257320257320563A2566204D313D00BB
:1017500000000E08EC730020080000202573000034
:10176000214623A808F098FD00F022FF502000F049
:1017700027FF0128FAD1582000F022FF0128FAD1D2
:10178000FB4C0021204603F071FC0828F9D103F03E
:10179000BFFB5AE72DE9F04790B000210491059175
:1017A00006910791089109910A910B910C910D9165
:1017B0000E910F9110F8101F8DF8101041788DF8D0
:1017C0001110C1788DF8181001798DF819108179F0
:1017D0008DF82010C1798DF82110417A8DF82810EC
:1017E000817A8DF82910017B8DF83010417B8DF8BE
:1017F0003110C17B8DF83810017C8DF83910817C57
:10180000007D30393038C4B201F0FF0A04A808F076
:101810006EFD00F0FF0906A808F069FD00F0FF0862
:1018200008A808F064FDC7B20CA808F060FDC6B2B5
:101830000EA808F05CFDC5B20AA808F058FDC0B2B9
:1018400003948DE8210433463A464146484600F069
:1018500083FBC8A009F072F910B0BDE8F0872DE94C
:10186000F04105460078002617460C46442804D06F
:10187000FE286AD04F2870D073E06878542870D161
:1018800001260922C149284608F024FD08B9092C7F
:101890004ED01F22BE49284608F01CFDDFF8F48216
:1018A00008B91F2C07D0BA491D222031284608F05C
:1018B00011FD10B103E001200AE01D2C07D0B4494E
:1018C00013223E31284608F005FD48B10AE0002009
:1018D000AF49387013228C31404600F024F940E0C3
:1018E000132C07D0AA4911225231284608F0F2FCE5
:1018F00020B105E03846FFF7B6FD32E0112C07D0E5
:10190000A3490F221039284608F0E4FC30B107E063
:1019100095F90E00394600F008F922E00F2C07D0A7
:1019200004229DA105F1090008F0D4FC20B105E0D6
:101930003846FFF762FD14E0272C01D0002610E0A6
:1019400039462846FFF726FF0BE06878012808D1C2
:10195000284600F009F804E0FFE76878542800D131
:1019600002263046BDE8F0812DE9F04704468800A4
:1019700016468846A1F11907643809F0A7FF05004B
:101980004FF0020935D0002005E02118C97C45F848
:101990002010401C80B2B842F7D339462846FFF7E2
:1019A00098FB0746284609F0B1FD04EB080050F803
:1019B000060C00BA874219D16FF0120009F086FFB9
:1019C0000500D4F8020002BA13D0133A174604F106
:1019D0001301284608F047FCB9B232462846FFF703
:1019E0003EFF2846BDE8F04709F090BD0120707029
:1019F00033E786F8019030E72DE9F04190B00220FE
:101A000009F064FF040002D165A009F097F84FF4D3
:101A1000487009F05BFF050002D161A009F08EF863
:101A2000012020705F4800266670026857485849B8
:101A30002F380D3903680B6003790B7103680B6154
:101A400003790B7503680B63037981F834300368FD
:101A5000C1F84E30037981F852300368C1F8623022
:101A6000037981F8663003684B67037981F8783031
:101A70007D3103680B62007981F824001046FFF77E
:101A800054FB002847D048480178012943D1DFF8AA
:101A9000048106700EAA29464046FFF7DAFB22466B
:101AA000BDF838102846FFF7DAFED8B93421684669
:101AB00008F0F2FB354A173AAFF26031684609F098
:101AC0004DF8684608F0FFFB304980B2684436396B
:101AD00009F044F8684608F0F6FB82B269464046D1
:101AE00000F021F86778B7B1342101A808F0D4FBE1
:101AF00026483B46363800F1140200902BA101A87D
:101B000009F02CF801A808F0DEFB82B201A94046DA
:101B100000F009F86670204609F0F8FC284609F044
:101B2000F5FC10B01EE7FFF765BB2DE9F043BDB033
:101B30008946044698210AA808F0AEFB303CE4B27E
:101B400030A800F0BEF82046FFF733F880460F4675
:101B500000F0F4FC00F00DFD05460E4600F06FFAB3
:101B60000A4930AB3639CDE90841CA1D22E00000F0
:101B700000000C0853435431353030312054494D66
:101B80004520535543434553530D0A0006BA0008F8
:101B9000240000200010014054494D450000000081
:101BA00065000000000000200D00002025733D2589
:101BB0006425730000900295CDE90364CDE90687A2
:101BC00007A10AA808F0CAFF0AA808F07CFB81B2A6
:101BD0004A460AA8FFF792FB3DB0BDE8F08300003B
:101BE0002353435425733D307825732025732056A5
:101BF0003A2566204D25643D2566205025643D200C
:101C0000302025730000000038B500F09BFF012054
:101C100000F0B0FF02E000F0CAFF0446012CFAD148
:101C2000002001F004F807200821009002234FF45F
:101C3000A872C80400F0EBFF012000F0F8FF314863
:101C400001688901FCD52F480830016821F00301A3
:101C50000160016841F0020101600168C1F3810186
:101C60000229FAD1002001F012F84FF4A05001F03F
:101C700016F8BDE838404FF4805001F018B810B5A0
:101C80000121C80201F09DF802F0FEFE4FF4C07081
:101C900002F006FF7F2002F00AFFBDE8104041205D
:101CA00002F01ABF10B545F2555002F02DFF052085
:101CB00002F02DFF642002F02DFFBDE8104002F07D
:101CC00031BF2DE9FF41002506463221009508F07D
:101CD000E3FA0D48002101AC0A5C6254491CC9B208
:101CE0000C29F9D300276846E15DFFF7E1F9694661
:101CF000304608F0DCFA7F1CFFB200950C2FF2D3BF
:101D0000BDE8FF8100380240107AFF1F70B58AB02D
:101D10000121102001F05FF80121022001F033F8C9
:101D200000214FF4804001F056F802258DF818503C
:101D30000024C0208DF81A4005908DF81B40032028
:101D40007F4E8DF8190005A9304600F065FE072288
:101D50000621304600F0D4FE07221146304600F03E
:101D6000CFFE4FF416500190ADF80C400C20754E8C
:101D7000ADF80840ADF80E00ADF80A40ADF81040DF
:101D800001A9304601F037F9012240F225513046D1
:101D900001F046FA0121304601F0A3F94021304616
:101DA00001F05DFA280207908DF822408DF820405E
:101DB00008208DF8210007A800F068FD17208DF895
:101DC00000008DF8015001268DF802608DF8034067
:101DD000684600F0DAFC25208DF800008DF80150EF
:101DE0008DF802408DF80360684600F0CEFC0AB022
:101DF00070BDF0B585B04FF4A06000F0C1FC0121CA
:101E0000880300F0E8FF00258DF804508DF8065097
:101E10004D4F8DF8075003244FF400768DF80540A0
:101E200069463846009600F0F7FD0921032001F0CD
:101E300082F8029601268DF80E608DF80C5008206D
:101E40008DF80D0002A800F021FD17208DF810007C
:101E500002208DF811008DF812608DF8136004A82F
:101E600000F093FC49F6FF7000908DF8044069463D
:101E7000364800F0D1FD4FF6FF758DF804406946F5
:101E80002F48009500F0C8FDE81000908DF8044040
:101E900069462F4800F0C0FD4FF6FF5000908DF8C6
:101EA00004406946384600F0B7FD8DF804406946A5
:101EB0002848009500F0B0FD0021172000F063FFD6
:101EC0000021102000F087FF0021300300F083FF85
:101ED0000021022000F075FF0021012000F071FFB9
:101EE0000021042000F06DFF05B0F0BD70B5154C69
:101EF00005464021204601F0ABF94021204601F083
:101F0000AEF9E9B2204601F012F94021204601F075
:101F10009FF90028F9D0284670BD70B50446094DD8
:101F200009E0284601F003F94021284601F090F924
:101F30000028F9D0641C21780029F2D170BD00007E
:101F40000004024000100140000C0240000002406A
:101F500000080240001002402DE9FC411C46DDE96A
:101F60000A358DF807008DF80510DDE908768DF843
:101F700006208DF8043001A9002002F072F98DF8D6
:101F800003508DF800408DF801708DF802606946AD
:101F9000002002F0F1F843F2F121002002F044FCAD
:101FA000BDE8FC8110B50446012188B0080700F0A7
:101FB00008FF012002F00CFD012C10D1012000F0DF
:101FC00017FE412000F0DCFD0028FAD04FF48070AD
:101FD00000F0B9FE012000F0CBFE01F0DBFF84B978
:101FE000012000F011FE612000F0CAFD0028FAD0A7
:101FF0004FF4007000F0A7FE012000F0B9FE01F0E0
:10200000C9FF7F200590FF2006900020049004A8BF
:1020100002F04EF8002002F00FFCA0F54851F13913
:102020000BD0012010224021CDE90020CDE9020192
:1020300008230D210E20FFF78FFF08B010BD00B55B
:10204000A1B000201A901B901C901D901E901F9014
:10205000502104A808F020F9002002F0EDFBA0F5C3
:102060004851F13910D00020FFF79CFF0120502289
:10207000CDE900204021CDE90201142328221221BC
:102080001520FFF769FF31E018A9012002F0BFF821
:1020900019A9012002F030F99DF867101AA8FFF77E
:1020A00007F89DF865101BA8FFF702F89DF8661069
:1020B0001CA8FEF7FDFF9DF860101DA8FEF7F8FFB5
:1020C0009DF861101EA8FEF7F3FF9DF862101FA88F
:1020D000FEF7EEFF1FAB1EAA1DA91CA88DE80F007E
:1020E0001BAB1AAA98A104A808F038FD04A821B0D7
:1020F00000BD00B59BB00020159016901790189069
:1021000019901A903C2104A808F0C6F8002002F0AB
:1021100093FBA0F54851F13910D00020FFF742FFA2
:1021200001205022CDE900204021CDE902011423F5
:10213000282212211520FFF70FFF31E013A90120FB
:1021400002F065F814A9012002F0D6F89DF85310AA
:1021500015A8FEF7ADFF9DF8511016A8FEF7A8FFD1
:102160009DF8521017A8FEF7A3FF9DF84C1018A871
:10217000FEF79EFF9DF84D1019A8FEF799FF9DF8F8
:102180004E101AA8FEF794FF1AAB19AA18A917A89F
:102190008DE80F0016AB15AA71A104A808F0DEFCAB
:1021A00004A81BB000BD2DE9F04F0D4604464FF4C6
:1021B000807B89B091460021584602F058F90026EC
:1021C0008DF8146008208DF815004FF4003A0127AF
:1021D000CDF810A08DF8167004A800F057FB292048
:1021E0008DF81C008DF81F708DF81D708DF81E6025
:1021F00007A800F0CAFA3F03384602F0B8FB504681
:1022000000F0A2FB06A9002002F001F808A90020B6
:1022100002F072F89DF820208DF80C20B804CDE96A
:1022200001609DF81B0060F31F689DF818000119FC
:1022300018290ED3A4F11801014461F30708521CB8
:10224000D1B28DF80C10072905D9C91F8DF80C10D3
:1022500001E061F307089DF81920641C51193C291D
:102260001AD3A5F13C01114461F30F280119C9B239
:1022700061F30708182911D3A0F1180161F30708C9
:102280009DF80C10491CC9B28DF80C10072905D90E
:10229000C91F8DF80C1001E061F30F289DF81A306A
:1022A00003EB09013C2923D3A9F13C01194461F353
:1022B00017486D1C5119C9B261F30F283C2919D375
:1022C0003C392044C0B261F30F2860F30708182896
:1022D00010D3183860F307089DF80C00401CC0B2FA
:1022E0008DF80C00072805D9C01F8DF80C0001E0FF
:1022F00061F317486A465C4659460020CDF80080D5
:1023000002F01BF80121384602F0E4FA01212046D0
:1023100002F0ADF809B0BDE8F08F10B54FF480546D
:10232000204602F00DFB00280CD0002101220846B7
:10233000FFF739FF204602F01AFB6001BDE81040AC
:1023400000F002BB10BD0000323025732D25732D27
:1023500025732D25733A25733A25737C0000000000
:10236000323025732D25732D25732D25733A257352
:102370003A2573002DE9FC4101211F2000F003FDE7
:1023800001248DF8044000258DF8065006204B4F9F
:102390008DF80740032600908DF8056069463846A1
:1023A00000F03AFB8DF804408DF80650A0028DF83D
:1023B000074000908DF805606946414800F02CFB0D
:1023C0008DF804408DF8065030208DF807400090BD
:1023D0008DF805606946384600F01EFB8DF8044014
:1023E0008DF8065020028DF8074000908DF80560AA
:1023F0006946344800F010FBBDE8FC812F4A0128F3
:102400004FF00201104601D000F06DBB00F069BB37
:102410002A4A01284FF00401104601D000F063BBA6
:1024200000F05FBB264A01284FF48061104601D0BE
:1024300000F059BB00F055BB10B5024621481F4CB7
:102440004FF48071092A38D2DFE802F0372B0508F3
:102450000B12151C1F0000F044FB24E000F043FBAE
:1024600001E000F03EFB1021204600F03AFB1EE0A8
:1024700000F039FB01E000F034FB1021204600F0B1
:1024800032FB08E000F02FFB01E000F02AFB1021F6
:10249000204600F026FB2046BDE81040202100F039
:1024A00020BB00F020FB1021204600F01CFB204642
:1024B000BDE81040202100F016BB10BD000802400E
:1024C000000402400010024070B58CB001210420CD
:1024D00000F059FC01210E02304600F07CFC032084
:1024E0008DF82C00012500240A958DF82F400AA9AB
:1024F000294800F091FA0121304600F09EFC0021AD
:10250000304600F09AFC06940994089406A80794B3
:1025100002F04FFB8DF8044000948DF805400294C2
:1025200004941E4C8DF814506946204602F016FBA8
:102530000121204602F052FB0CB070BD70B5174D62
:10254000174C072301220A21284602F07AFB28466D
:1025500002F0B1FB02E0641E012C05D002212846E6
:1025600002F071FC0028F6D02846BDE8704002F069
:10257000D4BB10B508F067F84FF06632094B07F08E
:102580006AFF6FF00B0208F047F8BDE81040064AFA
:10259000064B07F0D2BF00000008024000200140B7
:1025A000FFFF010066660A404C67319DC574C63F57
:1025B00010B502F0A1FCBDE81040F32002F026BEE9
:1025C00010B5022102F0D2FC082801D0002010BD75
:1025D000012010BD10B502F049FD082801D00020EF
:1025E00010BD012010BD70B50C46054607E02178EE
:1025F000284602F075FD0828F9D16D1C641C20786E
:102600000028F4D170BD70B5ADF5805D0C4605466F
:102610006E464FF48051304607F03EFE00223046B1
:1026200005E0AB5CFF2B00D100238354521CA24277
:10263000F7DB0DF5805D70BD70474B493FA300206F
:102640001A5C8A800A885206FCD5401CC0B22A282F
:10265000F6D3FEE7FEE7FEE7FEE7704770477047F8
:102660002DE9F04103F018F9404F0121384601F0FF
:1026700056FA0026FD04F8B1686A3D4C01216060FD
:10268000384601F058FA606807F0DDFF02460B4655
:102690000020384907F051FFC4E902010021384603
:1026A00000F018FF3148243006600021284600F071
:1026B00011FF6E62012020700221384601F02FFACE
:1026C00040B16E620221384601F035FA01212846F8
:1026D00000F000FFBDE8F04103F0E9B810B503F0E9
:1026E000DBF8254C0121204601F019FA90B1204A6F
:1026F0005078401CC1B2214851700378994205D1ED
:10270000002151700170204600F0E4FE01212046B6
:1027100001F011FABDE8104003F0C9B810B503F09C
:10272000BBF84FF40074204600F000F910B12046C9
:1027300000F00AF9BDE8104003F0B9B80D0A456E83
:1027400074657220486172644661756C745F48619B
:102750006E646C65722C2053797374656D204861CA
:102760006C742E0D0A0000000010014000080040AB
:10277000C8000020389C7C41000400400400002078
:102780002749084327490860704770B50F23C2786E
:10279000017801254FF0E026E2B1224A126802F4E6
:1027A000E062C2F5E062C2F30722C2F10404D34042
:1027B0004278A24084781C401B4B14432201CA5427
:1027C000007800F01F018D40400906EB8000C0F842
:1027D000005170BD01F01F008540480906EB8000E4
:1027E000C0F8805170BD114A114001430D48001FCF
:1027F000016070470B4A121D0029116801D0014386
:1028000000E08143116070474FF0E021042808691F
:1028100003D020F004000861704740F00400FAE79C
:102820000000FA050CED00E000E400E080FFFF1F6F
:102830000E490120886070470C490860086870479D
:1028400010B50022094B03E050F822401C60521CD6
:102850008A42F9D3186810BD0448006870470349DC
:10286000087170470148007970470000003002404D
:10287000374900200860091D0860091D0860091D0E
:1028800008603349334814310860704730B5304A26
:102890008379016853B313688B431360111D0B6870
:1028A0000468A3430B60017911440B680468234357
:1028B0000B60274B083319680468A14319601C1D7D
:1028C00021680568A94321604179102905D0114488
:1028D0000A68006802430A6030BD19680268114343
:1028E0001960216800680143216030BD00791044FF
:1028F00002688A43026030BD0021016001710C2230
:10290000427181717047124910310A6802430A60AE
:10291000704701460E4A0020143212680A4200D065
:10292000012070470A49143108607047084A01467F
:1029300000201268064B0A4014331B680B4202D079
:10294000002A00D001207047014914310860704707
:10295000003C0140FFFF7F00714910B5884206D15D
:102960000121084600F041FA002101204FE06D49A5
:10297000884206D10121022000F037FA002102200E
:1029800045E06949884206D10121042000F02DFA72
:10299000002104203BE06549884206D1012108203E
:1029A00000F023FA0021082031E06149884206D175
:1029B0000121102000F019FA0021102027E05D49C4
:1029C000884206D10121202000F00FFA00212020AA
:1029D0001DE05949884206D10121402000F005FA46
:1029E0000021402013E05549884206D10121802072
:1029F00000F0FBF90021802009E0514988420AD10A
:102A000084150121204600F0F0F900212046BDE8A0
:102A1000104000F0EAB910BDF0B5002201274FF0D8
:102A2000030C0B6807FA02F52B40AB422CD1066869
:102A300053000CFA03F4A64306600E79D0F800E0C8
:102A40009E4046EA0E0606600E79012E01D0022E47
:102A500012D18668A64386604E79D0F808E09E4081
:102A600046EA0E0686604668AE43466045688E7943
:102A70009640B6B235434560C568A543C560CC797C
:102A80009C40C3681C43C460521C102AC9D3F0BDCB
:102A90004FF6FF7101600021017141718171C171B7
:102AA000704708B541F480320092C261C16100995B
:102AB000C161C169C069009008BD02460020126969
:102AC0000A4200D001207047006980B27047024678
:102AD000002052690A4200D001207047406980B24C
:102AE000704701837047418370470AB10183704783
:102AF000418370474161704742694A404261704773
:102B00004B07DB0E9A40C90810B500EB8100016A43
:102B10000F249C40A1430162016A1143016210BD70
:102B2000000002400004024000080240000C024085
:102B3000001002400014024000180240001C024035
:102B400000200240EA48016841F001010160E84AC2
:102B50000021083211600268E64B1A400260031D32
:102B6000E54A1A60026822F480220260E0480C30D4
:102B700001607047DE490022891C0A7008707047A6
:102B800002460020510901290CD002290CD0D84955
:102B90007431096802F01F02012393400B4200D0F8
:102BA00001207047D249F4E7D1497031F1E718B5F7
:102BB00000204FF4A04400903120FFF7E1FF00997E
:102BC000491C0091A14201D00028F5D03120FFF727
:102BD000D7FF002800D0012018BDC54A116821F098
:102BE000F80141EAC00010607047C44908607047AE
:102BF000BF49002270310A700A70012802D00428EF
:102C000001D1052008707047BD490860704741EA4E
:102C100082115A0810B5BB4B029C03EB02421143D0
:102C2000014341EA0460B249091D086010BDB3497F
:102C300008667047800140EA0170AD498431086040
:102C40007047AE4988667047AC49C8647047A84B66
:102C500008331A68084322F0EC621043186070478A
:102C6000A34B08331A68084322F0784210431860D7
:102C700070479F4A0832116821F003010143116037
:102C800070479B480830006800F00C007047984A75
:102C90000832116821F0F001014311607047944A35
:102CA0000832116821F4E051014311607047904AE5
:102CB0000832116821F4604141EAC0001060704799
:102CC00070B58B4B083319688F4C11F00C0104D090
:102CD0006610042903D0082903D004601BE00660B5
:102CE00019E0834A121D1168C1F38055116801F083
:102CF0003F0115B1B6FBF1F101E0B4FBF1F114684D
:102D00001268C4F388146143C2F30142521C52009A
:102D1000B1FBF2F1016019680F2202EA11117B4A3E
:102D2000545C0168E14041601C68072505EA942471
:102D3000145D21FA04F484601B6805EA5333D25C05
:102D4000D140C16070BDC0F30121032908D1684B97
:102D5000083319686E4A21F4F81102400A431A60D8
:102D6000634970310A68C0F30B0002430A60704780
:102D700063494439086070476149403908607047C9
:102D80006449086070475A4A30320029116801D0FE
:102D9000014300E0814311607047554A34320029F5
:102DA000116801D0014300E0814311607047504A2F
:102DB00038320029116801D0014300E081431160DD
:102DC00070474B4A40320029116801D0014300E0AE
:102DD000814311607047464A44320029116801D08E
:102DE000014300E0814311607047414A10320029DD
:102DF000116801D0014300E08143116070473C4AF3
:102E000014320029116801D0014300E081431160B0
:102E10007047374A18320029116801D0014300E099
:102E2000814311607047324A20320029116801D075
:102E3000014300E08143116070472D4A243200298C
:102E4000116801D0014300E0814311607047284AB6
:102E500050320029116801D0014300E08143116024
:102E60007047234A54320029116801D0014300E021
:102E70008143116070471E4A58320029116801D001
:102E8000014300E0814311607047194A6032002914
:102E9000116801D0014300E0814311607047144A7A
:102EA00064320029116801D0014300E081431160C0
:102EB00070470F4A0D320029117801D0014300E01C
:102EC0008143117070470A487430016841F0807185
:102ED000016070470146064A00200C3212680A421F
:102EE00000D00120704702490E3108707047000081
:102EF00000380240FFFFF6FE103000240000474279
:102F0000800E47420000FFFF0024F400D80000209C
:102F1000FFFCFF0F5C01474210B501218C032046E6
:102F2000FFF78BFF2046BDE810400021FFF785BF6B
:102F300011490860704710B58A0721F00304120F89
:102F40000F230D499340083121440C689C430C60C9
:102F50000B68904003430B6010BD08490860704740
:102F60000749086070470449002020310968C905F5
:102F700000D501207047000000380140DC002742E6
:102F800000042742CA4910B5884206D10121102009
:102F9000FFF753FF0021102028E0C649884202D1E4
:102FA00001214C0410E0C449884202D101218C0463
:102FB0000AE0C249884202D10121CC0404E0C049A0
:102FC00088420AD101210C052046FFF72CFF20463C
:102FD000BDE810400021FFF726BFBA49884209D159
:102FE00001212020FFF729FF00212020BDE810400B
:102FF000FFF723BF10BD7FB50446008A0D46C98880
:1030000020F4405001432182A08941F20C618843A1
:10301000A9882A8911436A8902431143A181A08AA0
:1030200020F44071A8890843A0826846FFF748FE53
:103030009F48844202D0A348844201D1039800E013
:103040000298A1890904002900EBC00101EB0010DE
:10305000296802DA4FEA410101E04FEA8101B0FB41
:10306000F1F06422B0FBF2F14FEA01114FEA1113C3
:103070006FF018056B4300EB8300A3891D044FF02C
:10308000320306D503EBC000B0FBF2F000F00700FE
:1030900005E003EB0010B0FBF2F000F00F00084376
:1030A00020817FBD4FF41651016000218180C180D5
:1030B00001810C2242818181704710B5028A4C88BF
:1030C00022F470630A8822438C88C9880C43224307
:1030D0001A43028210BD0021018041808180C1809D
:1030E00070470029818902D041F4005101E021F4A8
:1030F000005181817047028B02F47F420283028B70
:103100000A43028370470029818902D041F40041BB
:1031100001E0C1F30E01818170470029818A02D04C
:1031200041F4006101E021F4006181827047C1F344
:103130000801818070478088C0F308007047028AC8
:1031400022F00F020282028A0A430282704700299B
:10315000818902D041F0020101E021F00201818168
:103160007047828922F40062828182890A438281C7
:103170007047028A22F020020282028A0A430282F7
:1031800070470029018A02D041F4804101E021F416
:10319000804101827047818941F00101818170473E
:1031A0000029818A02D041F0080101E021F00801E4
:1031B00081827047028BD2B20283028B42EA0121E4
:1031C000018370470029818A02D041F0200101E08B
:1031D00021F02001818270470029818A02D041F0CC
:1031E000100101E021F0100181827047828A22F0F3
:1031F00004028282828A0A43828270470029818A7D
:1032000002D041F0020101E021F002018182704709
:10321000002A828A01D00A4300E08A4382827047F2
:1032200010B5C1F3421301F01F040121A140012B8D
:1032300007D0022B07D01430002A026805D00A43B9
:1032400004E00C30F8E71030F6E78A43026010BD66
:103250000246002012880A4200D001207047C9436C
:103260000180704770B501F01F0501260024C1F3ED
:10327000421306FA05F2012B0FD0022B0FD0838ADE
:103280004FEA11210088134206FA01F600EA06000F
:1032900001D000B10124204670BD8389F0E7038A84
:1032A000EEE70A0A01219140C943018070470000FE
:1032B000001001400044004000480040004C004025
:1032C0000050004000140140FE4910B5884206D16C
:1032D00001210846FFF7B1FD002101205BE0B0F1BC
:1032E000804F09D0F84988420DD101210220FFF713
:1032F0009AFD0021022070E001210846FFF793FDAE
:103300000021012069E0F149884206D10121042011
:10331000FFF789FD002104205FE0ED49884206D1D6
:1033200001210820FFF77FFD0021082055E0E94931
:10333000884206D101211020FFF775FD00211020E1
:103340004BE0E549884206D101212020FFF76BFDC3
:103350000021202041E0E149884206D101210220DC
:10336000FFF76BFD0021022015E0DD49884202D104
:1033700001210C040AE0DB49884202D101214C04FE
:1033800004E0D94988420AD101218C042046FFF784
:1033900054FD00212046BDE81040FFF74EBDD34943
:1033A000884206D101214020FFF73DFD0021402049
:1033B00013E0CF49884206D101218020FFF733FD79
:1033C0000021802009E0CB4988420AD184150121DF
:1033D0002046FFF728FD00212046BDE81040FFF7FA
:1033E00022BD10BD30B50288B64CBC4DA0420DD0F8
:1033F000A8420BD0B0F1804F08D0B34B984205D013
:10340000B24B984202D0B24B984203D122F07003E3
:103410004A881A43AF4B984206D0AF4B984203D02C
:1034200022F440730A891A4302804A68C2620A88F9
:103430000285A04201D0A84201D1897A01860121EA
:10344000818230BD4FF0FF31416000210180018158
:10345000418081727047018582827047028822F024
:1034600070020A430280704741627047C162704730
:10347000406A7047008D70470029018802D041F0F2
:10348000020101E021F0020101807047002901885A
:1034900002D041F0040101E021F0040101807047F5
:1034A0000029018802D041F0800101E021F0800173
:1034B00001807047028822F00802028002880A43D5
:1034C00002807047028822F44072028002880A4318
:1034D000028070470029018802D041F0010101E01B
:1034E00021F001010180704730B5028C22F0010209
:1034F0000284028C8388048B22F0020224F073057C
:103500000C882C438D8915434A882A436D4DA84267
:1035100002D0724DA8420DD122F00805CA8923F4C9
:1035200040732A4322F004058A882A430D8A1D43EA
:103530004B8A2B438380048389684163028430BDB6
:1035400070B5028C22F010020284028C8388048BF6
:103550000D8824F4E6464FF6FF7404EA052535434A
:103560008E8922F0200204EA061616434A8804EAED
:1035700002123243534EB04202D0584EB04215D1DF
:1035800022F08006CA8923F4406304EA021232431F
:1035900022F040068A8804EA021232430E8A04EAC4
:1035A00086061E434B8A04EA8303334383800583E4
:1035B00089688163028470BD70B5028C22F48072C8
:1035C0000284028C8388848B0D8824F07304254345
:1035D0008E894FF6FF7422F4007204EA0626164321
:1035E0004A8804EA02223243364EB04202D03B4EB1
:1035F000B04215D122F40066CA8923F4405304EA8C
:103600000222324322F480668A8804EA022232438C
:103610000E8A04EA06161E434B8A04EA0313334358
:10362000838085838968C163028470BD70B5028C14
:1036300022F480520284058C8288838B0C8823F4C8
:10364000E6464FF6FF7303EA0424344325F400569C
:103650008D8903EA053535434E8803EA06362E4345
:10366000184DA84202D01D4DA84205D122F4804534
:103670000A8A03EA82122A43828084838968016469
:10368000068470BD0021018041808180816081813C
:10369000C18101824182704730B50124058C00F15F
:1036A00018038C40A543058431B308292CD0091F89
:1036B000C1F34E001844016848F6FF7319400160D9
:1036C00001681AE0000001400004004000080040CA
:1036D000000C0040001000400014004000040140B5
:1036E00000400140004401400048014000180040F3
:1036F000001C00400020004006E04FF6FF7303EA84
:1037000002221143016030BD03EB510001684FF606
:103710008F73194001600168F3E74163704781636B
:103720007047C163704701647047028B22F07002DA
:103730000A4302837047028B4FF6FF7322F4E04284
:1037400003EA0121114301837047828B22F070024A
:103750000A4382837047828B4FF6FF7322F4E04264
:1037600003EA0121114381837047028B22F0080292
:103770000A4302837047028B4FF6FF7322F4006204
:1037800003EA0121114301837047828B22F0080272
:103790000A4382837047828B4FF6FF7322F40062E4
:1037A00003EA0121114381837047028B22F0040256
:1037B0000A4302837047028B4FF6FF7322F4806244
:1037C00003EA0121114301837047828B22F0040236
:1037D0000A4382837047828B4FF6FF7322F4806224
:1037E00003EA0121114381837047028B22F080029A
:1037F0000A4302837047028B4FF6FF73C2F30E0237
:1038000003EA0121114301837047828B22F0800279
:103810000A4382837047828B4FF6FF73C2F30E0216
:1038200003EA0121114381837047028C22F00202D6
:103830000A4302847047028C22F008020A43028481
:103840007047028C4FF6FF7322F0200203EA011149
:10385000114301847047028C4FF6FF7322F08002FF
:1038600003EA0111114301847047028C4FF6FF7384
:1038700022F4007203EA0121114301847047028C93
:103880004FF6FF7322F4006203EA01211143018421
:103890007047028C4FF6FF7322F4005203EA0131A5
:1038A00011430184704710B50123048C8B409C4365
:1038B0000484038C8A401343038410BD10B5042391
:1038C000048C8B409C430484038C8A401343038400
:1038D00010BD828B22F440628283828B4FF6FF738D
:1038E00003EA01210A4382837047828B22F00C0293
:1038F0008283828B0A4382837047028B22F4406268
:103900000283028B4FF6FF7303EA01210A4302830D
:103910007047F0B5048C24F010040484078B068CE7
:103920004FF6FF7404EA011527F4734704EA0331E4
:10393000394304EA02220A4326F0A001294341F058
:10394000100102830184F0BD028B22F00C0202837D
:10395000028B0A43028370472DE9F0410C460E8822
:103960004988A288238905460EB3042E26D0082E46
:103970002E8C4FF6FF7028D026F480562E84AF8B05
:103980002E8C00EA022200EA013127F473473A4301
:1039900000EA0330104326F420420A4342F48051E7
:1039A000A8832984E1882846BDE8F04191E700F02A
:1039B00062F9E1882846BDE8F041C5E7FFF7A9FFB5
:1039C000E1882846BDE8F04197E726F480762E840A
:1039D000AF8B2E8C00EA012100EA0310104327F080
:1039E000F307384326F420620A4342F48071A88327
:1039F0002984E1882846BDE8F04176E7002101806E
:103A0000418001228280C180018170472DE9F0410F
:103A10000C46002649880746012501B90226A288DE
:103A2000012A00D10225208823890028384610D099
:103A3000FFF76FFFE1883846FFF75FFF23892A46CB
:103A40003146384600F017F9E1883846BDE8F041C4
:103A50007AE700F010F9E1883846FFF775FF23890F
:103A60002A4631463846FFF754FFE1883846BDE81C
:103A7000F04142E7406B7047806B7047C06B704706
:103A8000006C704710B50A884B88CC881A438B8825
:103A900023431A430B891A434B8989891A430A43E2
:103AA000A0F8442010BD0021018041808180C180A8
:103AB0000181418181817047002930F8441F02D083
:103AC00041F4004101E0C1F30E010180704700297B
:103AD000818802D041F0040101E021F004018180DD
:103AE00070470029818802D041F0010101E021F0F6
:103AF000010181807047002A828901D00A4300E0D9
:103B00008A43828170478182704702460020128A70
:103B10000A4200D001207047C94301827047024623
:103B20000020138A92890B4202EA010202D0002A85
:103B300000D001207047C943018270471143A0F8AB
:103B400048107047002A828901D00A4300E08A4366
:103B5000828170470029818802D041F0080101E08C
:103B600021F0080181807047018921F0070101815E
:103B70007047028922F070020A430281704700B543
:103B80000346FFF7F6FF188940F00700188100BDD3
:103B900070B516460D46602904464FF001023146C5
:103BA0000AD000F068F829462046FFF7E2FF208996
:103BB00040F00700208170BDFFF7ABFEF3E730B5A2
:103BC00004894FF6FF7505EA03231343E4B20B4360
:103BD0002343038130BD10B50446FFF7F0FF208971
:103BE00040F07700208110BD10B50446FFF7E7FFD5
:103BF000208940F48040208110BD828822F070022C
:103C0000828082880A4382807047028922F00702FC
:103C1000028102890A4302817047028922F08002F0
:103C2000028102890A430281704770B50589048BBD
:103C3000068C25F007050D434FF6FC410C4040F281
:103C400001110C434FF6FF7101EA031126F0220621
:103C50001143314305810483018470BD00298188AB
:103C600002D041F0800101E021F0800181807047A5
:103C7000A0F85010704770B5048C24F0010404843F
:103C8000058B048C4FF6FF7606EA0313134325F0E9
:103C9000F3052B4324F00A020A4342F00101038397
:103CA000018470BDB64910B588420AD1841401213F
:103CB0002046FFF7C2F82046BDE810400021FFF77C
:103CC000BCB8B049884202D10121041404E0AE49D5
:103CD00088420AD10121C4132046FFF7A4F82046E8
:103CE000BDE810400021FFF79EB810BD30B5028836
:103CF0004C8802F441530A88CD8822438C882C4397
:103D000022430C8922434C8922438C892243CC894B
:103D100022431A430280828B22F400628283098A42
:103D2000018230BDF0B502220023858B01244FF2C1
:103D30004006354085830284858B8E68022E38D0FC
:103D40008A8802B10224914A13681B0203D51368C2
:103D500023F4000313608D4A7C3213681268C3F3A6
:103D600088138A4EC2F30272361F3668884F06F0F7
:103D70003F06B7FBF6F65E43B6FBF2F2CB88B3F52F
:103D8000007F2BD06301B2FBF3F202EB82028B685F
:103D90005200B2FBF3F2521D92B20A23B2FBF3F2CD
:103DA00002F00103D21A4FF6FF74C2F34F0204EA85
:103DB0000323941EFE2C01D302220023CC881A4335
:103DC000144304840A884B881A438B8889890B43DF
:103DD0001A432A4342F400618183F0BD120AD4E7FA
:103DE0000021018041808180C180018141818181E8
:103DF000C1810721018270470021018041808180BB
:103E0000C18002228260818170470029018802D02E
:103E100041F0400101E021F040010180704700299C
:103E2000818B02D041F4806101E021F480618183C3
:103E30007047028822F40062028002880A430280EE
:103E40007047B1F5804F018803D021F48041018093
:103E5000704741F48041FAE7A1F57E420188FF3ABC
:103E600002D041F4807101E021F48071018070473B
:103E70000029818802D041F0040101E021F0040111
:103E8000818070470029818802D041F0100101E053
:103E900021F010018180704730B5828B00234FF2F2
:103EA00040042240828302220284848B0A884FF4D9
:103EB0008075B2F5007F00D002B92B464A888D8804
:103EC00089892A4319430A43224342F400618183CA
:103ED00030BD80897047818170470029018802D0F8
:103EE00041F4005101E021F4005101807047018844
:103EF00041F4805101807047012901D0008B704747
:103F0000808A7047008A7047002A828801D00A435D
:103F100000E08A4382807047090901238B40002A10
:103F2000828899B201D00A4300E08A4382807047B8
:103F30000246002012890A4200D001207047C9437E
:103F40000181704730B501F00F030125024605FAE3
:103F500003F40020A3B2090905FA01F49188A4B280
:103F6000128921401A4202D0002900D0012030BD20
:103F700001F00F0201219140C94301817047000007
:103F80000030014000380040003C0040083802404A
:103F900000127A0018B50020FC4B0090CA2018606F
:103FA00053201860F9491839086820F0A00008600B
:103FB0004FF400340868009A00F02000521C009270
:103FC000A24201D00028F5D00868800601D5012062
:103FD00000E00020FF21196018BD08B5EB49002062
:103FE000183900900868400612D44FF0FF3008607E
:103FF0008B130868009A00F04000521C00929A420D
:1040000001D00028F5D00868400601D4002008BD82
:10401000012008BD78B50025DC4ECA2000952C464D
:10402000306053203060FFF7D8FFA0B3D748243862
:104030000560D64942F20110203908600B1D18684E
:1040400000F0070018608C13191D0868009A00F032
:104050000400521C0092A24201D00028F5D008684A
:1040600040071CD518681D60C84A4FF6FF70103A0B
:104070001060121FC6481060C4480C380560001D4F
:104080000560001D05600D60C0481C300560FFF72D
:1040900081FF20B10124FF203060204678BD00243C
:1040A000F9E7BA481838016821F0800101607047CB
:1040B00070B5B64E04460025CA20306053203060EB
:1040C000FFF78BFFA8B1B1481C38016821F040010F
:1040D00001600168226811430160AC48A16814388E
:1040E00001600168A28841EA02410160FFF7D9FF3F
:1040F0000125FF203060284670BD002101607F212E
:104100004160FF2181607047A04908B1FF2002E0B3
:10411000CA20086053200860704770B59B4E054662
:104120000024CA20306053203060FFF756FF60B192
:1041300096481C38016815B141F0100101E021F0EA
:1041400010010160FFF7ADFF0124FF203060204621
:1041500070BD8E4ACA211160532111608B491C39F0
:104160000028086802D040F0200001E000F0DF00E5
:104170000860FF201060704770B50C460026854B24
:1041800001002078196832464FEA416104D00029C5
:104190002BDA00F004FC29E0002900DBE27000F0DB
:1041A000F2FB0504607800F0EEFB45EA0025A078FC
:1041B00000F0E9FB0543E07845EA0045734CCA206E
:1041C000206053202060FFF708FF50B1724805407F
:1041D000704808380560FFF764FFFFF7DBFE00B1A9
:1041E0000126FF202060304670BDE270A078217863
:1041F00040EA01456078E178000240EA0140054369
:10420000DCE70021C17001704170817070470200CD
:1042100010B562480C4601685F4801EA0001C1F32D
:1042200005402070C1F30623637001F07F03A37083
:104230004FF0400303EA1141E1700AD100F0AFFBF7
:104240002070607800F0ABFB6070A07800F0A7FBF6
:10425000A07010BD4D48001D00684E49091F096837
:10426000704770B50C4600260100607810D000F051
:1042700096FBA07800F093FBA078E17840EA014536
:10428000607821784FEA002040EA4130054315E08C
:10429000C10603D520F010000A306070E07800F00D
:1042A00072FB0504607800F06EFB45EA0025A078FB
:1042B00000F069FB0543207845EA4035334CCA20BD
:1042C000206053202060FFF788FE50B1344805403D
:1042D0003048001F0560FFF7E4FEFFF75BFE00B10A
:1042E0000126FF202060304670BD012101708170E1
:1042F00041700021C1707047020010B529480C467A
:104300000168274801EA00014FEA1140E070C1F35B
:104310000423637001F03F03A370C1F342312170A5
:104320000AD100F03CFBE070607800F038FB607070
:10433000A07800F034FBA07010BD70B514460D4697
:10434000144A0021002810684FEA406005D0002878
:104350002ADA207800F023FB27E0002800DBE17058
:10436000207800F010FB0604607800F00CFB46EAB1
:104370000026A07800F007FB0643E07846EA0046F6
:10438000207B00F000FB46EA00601EE0242800408D
:10439000FF007F00082800407F7F7F00002800404A
:1043A0003FFFFF0004280040E170207B00F0F7FA97
:1043B000A0782178E27840EA01406178090241EA78
:1043C00002410843217B40EA0160A168084361681B
:1043D0000843F949CA220A6053220A60B5F5807F72
:1043E00004D00A1F1060FF20086070BDF24A083A2E
:1043F000F8E70021C1700170417081700122816075
:1044000002734160704710B514460246B1F5807FD3
:104410002AD0E948001F0168C1F305402070C1F3AC
:104420000623637001F07F03A370402303EA114366
:10443000E370C1F30563237301F0804301F0803121
:10444000C4E90113002A0ED100F0A9FA20706078A7
:1044500000F0A5FA6070A07800F0A1FAA070207BAF
:1044600000F09DFA207310BDD3480838D3E738B563
:104470000022D14C0092CA22226053222260CE4AEE
:104480001C3A0029116802D00143116012E08143F7
:104490001160C94A183A95131168009B01EA10216E
:1044A0005B1C0093AB4201D00029F5D0116811EAE2
:1044B000102000D00120FF21216038BD10B5BE4B77
:1044C000CA241C6053241C601143B0F5807F05D0C2
:1044D000B94824300160FF20186010BDB648203074
:1044E000F8E7B0F5807F05D0B34824300068C0F30A
:1044F0000E007047B0482030F8E7AF4ACA2111607B
:1045000053211160AC491C390B6823F007030B6081
:104510000B6803430B60FF2010607047A649CA2256
:104520000A6053220A60A44A103A1060FF20086013
:104530007047A1481038006880B2704718B5002154
:104540009D4B0091CA211960532119609A491C3969
:104550000028086803D040F48060086014E020F46C
:1045600080600860944918398C130868009A00F03C
:104570000400521C0092A24201D00028F5D0086825
:10458000400701D4002000E00120FF21196018BD80
:10459000894B10B5CA221A6053221A60864A1C3A07
:1045A000146824F4802414601468084304431460DD
:1045B000FF20186010BD80481C38006800F480207F
:1045C00070477D4B10B5CA221A6053221A607A4A8E
:1045D0001C3A146824F4E00414601468084304438B
:1045E0001460FF20186010BDF0B5734D064600241E
:1045F000CA200F46286053202860FFF7EEFC30B138
:104600006D483E430C380660FFF74BFD0124FF2048
:1046100028602046F0BD70B5674E05460024CA20CC
:10462000306053203060FFF7D8FC60B162481C381E
:10463000016815B141F0800101E021F080010160C5
:10464000FFF72FFD0124FF203060204670BD5A4A3D
:10465000CA2111605321116057491C39002808688C
:1046600002D040F4000001E020F400000860FF20C8
:1046700010607047504ACA211160532111604E49A1
:104680001C390B6823F400230B600B6803430B6099
:10469000FF2010607047F0B5474D0023CA242C60FE
:1046A00053242C60444C183C2668F60309D54FF47B
:1046B00000362768FF0304D5B34202D003F101039B
:1046C000F7E72368DB0306D408433B49104318315E
:1046D0000860012000E00020FF212960F0BD364B7A
:1046E00010B51C3B1A6840F60804A24342EA0002D7
:1046F00009B142F400623048CA21016053210160CF
:104700001A60FF21016010BD70B50D462A4914469C
:104710000C310968294A1140274A103212684FF6B5
:104720003F731A40C1F305432B70C1F306236B702E
:1047300001F07F03AB70402303EA1141E9700021CF
:10474000E170C2F30421617002F03F01A170C2F375
:1047500042312170002817D1287800F020F9287004
:10476000687800F01CF96870A87800F018F9A87053
:10477000607800F014F96070A07800F010F9A07073
:10478000207800F00CF9207070BD0B4814300068E0
:104790007047094A1C320029116803D041EA4000E1
:1047A0001060704721EA4000FAE7034A1C320029F2
:1047B000116805D0014304E0242800407F7F7F007A
:1047C0008143116070477A490A6822F4C0520A6036
:1047D0000A6802430A60704775490A6822F4E06279
:1047E0000A600A6802430A60704771490A6822F445
:1047F000C0420A600A6802430A6070476C49002898
:10480000086802D040F0800001E020F080000860DD
:10481000704767490028086802D020F4004001E092
:1048200040F4004008607047614A08B5103202EB5E
:1048300080000090016008BD5D4908B5103101EBB2
:1048400080000090006808BD59490A6822F480324F
:104850000A600A6802430A60704755490A6822F4F0
:1048600000320A600A6802430A60704750490A68C9
:1048700022F480220A600A6802430A60704770B519
:104880004B4C0022CA231C3C236053232360484B1B
:10489000343B1D682D0708D59E141D682D0704D5CF
:1048A000B24202D002F10102F7E71A6812070DD4F2
:1048B0003F4A383A1268D20608D401433C481438BB
:1048C0000160FFF767FB10B1012000E00020FF212D
:1048D000216070BD30B5364DCA221C3D2A6053227E
:1048E0002A60334C20F00402383C0029304B216808
:1048F00000F0040004D0114321601968014303E073
:1049000091432160196881431960FF20286030BD00
:104910000246274900203439096843F67773194065
:10492000114200D00120704780B240F08000C143A6
:104930001F483438026802F080021143016070475A
:104940001B4A0021126802F00403194A383A12681F
:1049500003EAD03302401A43164B1B6803EA1010D7
:1049600003D00004000C00D0012108467047C0F3BA
:104970000F1040F08000C1430E48026802F0800230
:10498000114301607047002103E0491C0A38C9B295
:10499000C0B20A28F9D2090740EA1160704701093C
:1049A00001EB810100F00F0000EB4100C0B2704745
:1049B000402800400C28004010B501210C0720467B
:1049C000FEF731FA2046BDE810400021FEF72BBA71
:1049D0002A49086270472A4A116821F0E001014320
:1049E000116070472549086170472449A03108606B
:1049F00070472249A431086070472149002808689F
:104A000003D040F480400860704720F48040FAE70B
:104A10001A49486270471A4B1A6822F0030202438F
:104A20001A601848026842F004020260012905D0A9
:104A300020BF016821F004010160704730BFF8E732
:104A40000F48016841F004010160016841F0020172
:104A500001600C48016841F00401016030BF7047FB
:104A6000074A0146002052680A4200D001207047E0
:104A700003490A6842EA80000860704700000E425D
:104A80000070004010ED00E010B50121CC0220467E
:104A9000FEF7C9F92046BDE810400021FEF7C3B972
:104AA000174A116821F4C07101431160704714491D
:104AB00008B50A6800F07F0022F07F0210430090E2
:104AC000086008BD0F490120086070470C4900F0DC
:104AD0007F00091F08607047094940F08000091FE6
:104AE0000860704706490020091D0968002900D0A8
:104AF0000120704702490020091D0860704700002E
:104B0000042C0040A48005420D49086070470C4900
:104B1000486070470A498860704709494AF6AA20E8
:104B20000860704706494CF6CC4008607047044A5C
:104B300001460020D2680A4200D0012070470000E0
:104B40000030004010B501210C022046FEF775F937
:104B50002046BDE810400021FEF76FB930B542682D
:104B6000C74B0C791A400B6842EA04221343436096
:104B70008268C44B4D791A40D1E9034323438C68C2
:104B800044EA4504234313438360C26A097D22F447
:104B90007002491EC9B242EA0151C16230BD002112
:104BA0000160017141718160C16001610121017584
:104BB0007047B54B10B51A68B4490A40D0E90014E3
:104BC0002143D0E90240044321431143196010BD41
:104BD0000021016041608160C160704700298168E7
:104BE00002D041F0010101E021F001018160704734
:104BF0004268A74B1A400A43426070474162826292
:104C00007047426822F01F020A4342607047A14980
:104C10000028D1F8040302D040F4000001E020F4A1
:104C20000000C1F8040370479A490028D1F8040332
:104C300002D040F4800001E020F48000C1F80403B9
:104C4000704770B5072609290AD9C568A1F10A0479
:104C500004EB4404A640B543A3401D43C56007E0F0
:104C6000056901EB4104A640B543A3401D4305611E
:104C70001F23072A09D2446B521E02EB8202934083
:104C80009C4391400C43446370BD0D2A09D2046BD0
:104C9000D21F02EB820293409C4391400C43046379
:104CA00070BDC46A0D3A02EB820293409C4391406E
:104CB0000C43C46270BD816841F0804181607047DF
:104CC000014600208968490200D50120704700296B
:104CD000816802D041F4806101E021F4806181604B
:104CE00070470029816802D041F0020101E021F003
:104CF0000201816070474268491E22F4604242EA24
:104D00004131416070470029416802D041F400619F
:104D100001E021F4006141607047C06C80B27047CF
:104D20005948001D006870470029816802D041F48D
:104D3000807101E021F480718160704700298168F1
:104D400002D041F4007101E021F4007181607047EC
:104D500050490028D1F8040302D040F4005001E08B
:104D600020F40050C1F80403704770B507260929E4
:104D70000AD9C568A1F10A0404EB4404A640B5436E
:104D8000A3401D43C56007E0056901EB4104A6404F
:104D9000B543A3401D430561836BC3F30154121B4C
:104DA000921C02EB82021F249440A34391400B43C8
:104DB000836370BD826B491E22F4401242EA0151A6
:104DC0008163704708B508440090026008BD82689E
:104DD00022F470220A4382607047826822F44012F3
:104DE0000A4382607047816841F4800181607047A6
:104DF000014600208968490200D50120704700293A
:104E0000416802D041F4806101E021F48061416099
:104E100070470029416802D041F4805101E021F43B
:104E200080514160704708B5084428300090006800
:104E300080B208BD01238B4041680AB1194300E0EC
:104E40009943416070470246002012680A4200D030
:104E500001207047C9430160704730B50246002009
:104E600053680C0A01258D4011682B40214202D065
:104E7000002B00D0012030BD6FEA11210160704786
:104E8000FFFEFFFCFDF7FFC004230140E030FCFF04
:104E9000FFFD3FFF00200140DE4908707047DD49FB
:104EA0000028086802D040F4807001E020F480708F
:104EB00008607047D7490028086802D040F40070A5
:104EC00001E020F4007008607047D24900280868AB
:104ED00002D040F4806001E020F4806008607047F8
:104EE000CC48016841F4006101607047C94801681D
:104EF00041F4805101607047C648103000680028B6
:104F000005DAC448C449001D0160C4490160704706
:104F1000C0481030016841F0004101607047BD4950
:104F200008200C310A68D20301D5012070470A68B5
:104F3000D20601D5052070470A6812F0EF0F01D0A4
:104F40000620704709688907FBD50720704708B518
:104F500008208DF80000FFF7E2FF8DF800009DF8B3
:104F600000000128F7D09DF8000008BD70B5064686
:104F7000002529B1012928D0022929D04FF44075F4
:104F8000FFF7E5FF08281FD1A24C1034206820F459
:104F900040702060206828432060206820F0F800DE
:104FA0002060206846F0020108432060206840F439
:104FB00080302060FFF7CBFF216821F002012160E3
:104FC000216821F0F801216070BD4FF48075D7E7AA
:104FD0004FF40075D4E730B504460025FFF7B7FF5E
:104FE0002CB1012C1DD0022C1ED04FF44075082886
:104FF00016D1884C1034206820F44070206020685E
:1050000028432060206840F004002060206840F4BD
:1050100080302060FFF79BFF216821F004012160B0
:1050200030BD4FF48075E2E74FF40075DFE7F0B56F
:1050300016461F460546FFF78AFF082815D1754C0E
:105040001034206820F440702060206840F44070E4
:105050002060206840F0010020602E606F60FFF744
:1050600076FF216821F001012160F0BD70B50D4689
:105070000646FFF76CFF082814D1664C10342068F0
:1050800020F440702060206840F4007020602068A8
:1050900040F0010020603560FFF759FF216821F0E2
:1050A0000101216070BD70B50D460646FFF74FFF48
:1050B000082814D1574C1034206820F44070206028
:1050C000206840F480702060206840F0010020607B
:1050D0003580FFF73CFF216821F00101216070BDA0
:1050E00070B50D460646FFF732FF082812D1494C2D
:1050F0001034206820F44070206020682060206810
:1051000040F0010020603570FFF721FF216821F099
:105110000101216070BD3F4814300068C00705D010
:105120003C483F49083001603E49016070473948BA
:105130001430016841F001010160704730B50D463F
:105140000446FFF704FF082807D1324816300188CB
:105150000DB1A14300E02143018030BD10B50446EC
:10516000FFF7F5FE082802D12A481530047010BD5B
:1051700070B515460C460646FFF7E9FE082808D12B
:1051800024491431087800F00F0004432C433443C1
:105190000C7070BD1F4914310A7822F00C020A709D
:1051A0000A7802430A7070471A481430017841F0B7
:1051B00002010170CBE6174814300068C0F34710B5
:1051C0007047144816300088704712490020153186
:1051D0000978AA2900D0012070470E4814300078C1
:1051E00000F00C0070470B4A10320029116801D002
:1051F000014300E08143116070470146054A0020E9
:105200000C3212680A4200D00120704701490C316B
:1052100008607047003C024023016745AB89EFCD31
:105220003B2A19087F6E5D4C0CB500225149009253
:105230000192086840F4803008604FF4A043086889
:1052400000F4003001900098401C0090019810B9C3
:1052500000989842F3D10868800334D5012001906A
:1052600044484030026842F080520260424802687E
:1052700042F4404202603F4808300268026002681F
:1052800042F400420260026842F4A0520260031F2E
:105290003A4A1A600A6842F080720A600A6892010B
:1052A000FCD5374940F205620A60016821F003012C
:1052B0000160016841F0020101600168C1F38101F0
:1052C0000229FAD10CBD01920CBD2A4810B5016823
:1052D00041F001010160274A002108321160026893
:1052E000284B1A400260031D274A1A60026822F404
:1052F000802202601F480C300160FFF795FF2349B0
:105300004FF00060086010BD70B51A4D0835286870
:105310001F4B204910F00C0004D05E10042803D06D
:10532000082803D00B601BE00E6019E0114A121D23
:105330001068C0F38054106800F03F0014B1B6FB51
:10534000F0F001E0B3FBF0F013681268C3F38813C8
:105350005843C2F30142521C5200B0FBF2F0086005
:1053600028680C4AC0F30310121D105C0A68C24082
:105370000A6070BD003802400070004008544007C9
:10538000003C0240FFFFF6FE1030002408ED00E074
:105390000024F400E8000020064880470648004743
:1053A000FEE7FEE7FEE7FEE7FEE7FEE7FEE7FEE7D5
:1053B000FEE7FEE7CB5200088901000872B670478D
:1053C00062B67047EFF3108072B6704780F31088B2
:1053D000704730BF704720BF7047B0FA80F0704709
:1053E00090FAA0F0B0FA80F0704790FAA0F0704701
:1053F00010B5FFF7E7FF044610216A4803F0B8FE36
:105400002046BDE81040FFF7E1BF674910B5002016
:105410000860FAF7E4FEBDE81040E9E7FEE770B582
:1054200005460C000ED075B1FFF7CCFF06461022E2
:105430005C49284604F026FC3046FFF7C7FF0020F1
:10544000208070BDFEE70A20088070BD70B50C009A
:10545000054612D095B1102104F006FC102810D298
:10546000FFF7B0FF0646102229464E4804F00AFC1A
:105470003046FFF7ABFF002005E0FEE70A2008807A
:1054800070BD4FF47A70208070BDFAF7BBBE7047D4
:10549000020004D04448006810B1002102E0FEE799
:1054A0004FF4FA61118070473F490860704710B5AA
:1054B000FFF793FF183810BD10B5FFF78EFF1038B7
:1054C00010BDFFF78ABFF0B54FF0FF370C0E0B0C85
:1054D0000D0A0026354A3F1A8E411CD24FF0FF3785
:1054E0003E0C3F1A8E410AD24FF0FF36350A301A71
:1054F0008D4101D2105DF0BDD05C0830F0BD4FF0A1
:10550000FF34FF23201A8B4102D2505D1030F0BDD2
:10551000505C1830F0BD4FF6FF740023241A8B4105
:1055200011D26FF07F440023241A8B4105D2000E64
:1055300040EA0120105C2030F0BD000C40EA014040
:10554000105C2830F0BDFF240023241A8B4105D2C3
:10555000000A40EA0160105C3030F0BD105C383069
:10556000F0BD08B1FFF73CBF0820704708B1FFF756
:1055700037BF1020704708B1FFF732BF20207047B7
:1055800000B550EA010201D1402000BDC243521CC7
:10559000CB4343F1000310401940FFF794FFC0F1E3
:1055A0003F0000BDEC770020FC000020E4BA0008BA
:1055B0004B480068002800D00047704749484A49D6
:1055C0000068096800EB8100484920F00700086086
:1055D000704747480068002800D000477047454999
:1055E0000968002900D00847704743490968002925
:1055F00000D00847704741490968002900D0084792
:10560000704710B5029C02EB840222F007024FF0B3
:10561000807442E902043A4842F80C0DA2F13000CD
:105620004FF012344FF00332C0E90A244FF0023237
:105630004262C0E907134FF011318161D10041612D
:10564000611001619100C1604FF0073181604FF03E
:10565000063141604FF0053140F8041951000160F6
:1056600010BD284810B5006800B18047FAF7CAFDA0
:105670002549264A09681268914206D094314B6840
:10568000C31A0B608C6823448B60C2F8980010BD6D
:105690001F480068002800D00047704710B5FFF78A
:1056A00091FE1C4A1178491C1170FFF78FFE03F020
:1056B00051FCBDE8104000F0FAB84FF0E021401E68
:1056C0004861154A106820F07F401060086940F07A
:1056D00005000861086940F0020008617047000099
:1056E00018010020F0BB0008F4BB000800010020F6
:1056F0001C0100200C0100201001002014010020DA
:10570000C989000820010020900100209401002098
:10571000240100202C01002020ED00E07047000053
:10572000FD4CFE4DFFF74EFE2168491C21602968A3
:10573000491C2960FFF74AFEFFF73AFFF2E700B580
:10574000F54A89B0002111600B2205910691CDE93F
:105750000720F348F34AF44B006812681B68029272
:10576000CDE903013F20CDE900030023AFF24F0252
:10577000EEA1F34802F0BFFB09B000BD0020F14BE1
:10578000024600EB400103EB8101401C0A810A60E4
:10579000C0B24A604028F4D3704710B50446FFF702
:1057A0000DFFE94800220A210270E8480270E8482B
:1057B0000270E8480260E8480260E8480270E84881
:1057C0000270E8480270E8480270E8480068B0FBE0
:1057D000F1F0E7490860E749086830B1E648006839
:1057E00018B1096804C0491EFCD1E4480260E448CD
:1057F0000260E4480260E4480260E4480260E44871
:105800000260E4480260E448027001F0D9FBFFF74F
:10581000B5FF204600F098FF208800283BD12046A5
:1058200001F03FF82088002835D1204601F048F8E3
:10583000208800282FD1204601F0AEFB20880028C8
:1058400029D1204601F06EFE2088002823D1204671
:1058500002F0C4F8208800281DD1204603F09AF8F1
:105860002088002817D12046FFF769FF20880028EC
:1058700011D1204603F077F9208800280BD120466B
:1058800002F00AFA2088002805D100F03FFCBDE8AC
:105890001040FFF743BF10BDAC480078012805D188
:1058A000A9490878FA2801D2401C08707047A74817
:1058B00010B5007801282BD1FFF784FDA2490446DA
:1058C000087800B3401E10F0FF0008701BD1A048FC
:1058D0000078C0B901F07DFBA1490870994900EB3F
:1058E000400051F820009C4908609A4909688842A4
:1058F00009D050F8901F491C0160A8480168491C54
:10590000016005F0E5F82046BDE81040FFF75EBDF8
:1059100010BD8D4810B50078002824D18C4800783F
:10592000002820D1FFF74EFD044601F052FB8C49C0
:105930000870844900EB400051F820008649086057
:1059400084490968884209D050F8901F491C0160B9
:1059500092480168491C016005F0B5F82046BDE891
:105960001040FFF733BD10BD70B50446764800788F
:1059700010B146F6625015E074480078012802D054
:1059800045F689600EE0724D2878FA2802D345F278
:10599000092007E0FFF716FD2978491C2970FFF759
:1059A00015FD0020208070BD70B504466648007863
:1059B00010B146F665501EE064480078012802D018
:1059C00045F6896017E0624D287860B1FFF7FAFC70
:1059D0002978491E11F0FF01297007D0FFF7F6FC66
:1059E00046F6635007E046F6645004E0FFF7EEFC2D
:1059F000FFF78FFF0020208070BD2DE9F041164693
:105A00000C460746FFF7DEFC57490025012F01D061
:105A10000D7001E001220A7055490CB10C6005E0DF
:105A2000524A0A231268B2FBF3F20A60FFF7CEFC77
:105A30003580BDE8F08110B50189002914D0012915
:105A400012D00024022907D0D0E90013CA681461DB
:105A5000C1E90343D96005E0D0E90012C1E903427E
:105A6000C2E90314C0E9002110BD70B504463648F0
:105A7000007810B148F2D1402EE03548007810B1DE
:105A800046F6635028E038480078012802D046F6F0
:105A90007B1021E0FFF796FC064630482949007844
:105AA00000EB400001EB80052889022805D2304632
:105AB000FFF78CFC46F67A100EE02846FFF7BBFF96
:105AC0002868416D09B92A49096881653046FFF7A0
:105AD0007DFCFFF71EFF0020208070BD70B51B4DC0
